:100000000C9434000C9451000C9451000C94510049
:100010000C9451000C9451000C9451000C9451001C
:100020000C9451000C9451000C9451000C9451000C
:100030000C9451000C9451000C9451000C945100FC
:100040000C9451000C9451000C9451000C945100EC
:100050000C9451000C9451000C9451000C945100DC
:100060000C9451000C94510011241FBECFEFD8E026
:10007000DEBFCDBF11E0A0E0B1E0E2EEF9E002C0EA
:1000800005900D92A231B107D9F721E0A2E1B1E0CC
:1000900001C01D92AA31B207E1F70E9474020C94CC
:1000A000EF040C9400008BB94598449A8FED9EE2C2
:1000B0000197F1F700C0000088B18E7E88B98FEFFC
:1000C0008BB908958BB9459A449A8FED9EE20197BA
:1000D000F1F700C0000088B18E7E88B98FEF8BB930
:1000E0000895CF93DF93C82FD92F8881181634F441
:1000F00021960E94620089911816DCF3DF91CF915E
:1001000008958FEF8AB987B1816387B987B1817FFD
:1001100087B988B18E6088B981E00E9453002FEFC3
:1001200080E792E0215080409040E1F700C000005D
:1001300088E30E9453002FEF80E792E02150804037
:100140009040E1F700C000008FE00E94530090E073
:1001500080E008958F929F92AF92BF92CF92DF92EC
:10016000EF92FF920F931F93CF93DF93882E992ED8
:10017000E62EF72ED42FC52FC22ED32EA02EB12EB1
:1001800084E091E00E94710086E80E945300809113
:100190000001909101010AE010E0B8010E94920470
:1001A000CB014AE0682D792D0E94BA04882D992D43
:1001B0000E9471008091000190910101B8010E949C
:1001C00092044AE0682D792D0E94BA04882D992D59
:1001D0000E94710088E80E9453008AE30E94620036
:1001E0008091020190910301B8010E949204CB0119
:1001F0004AE06E2D7F2D0E94BA048E2D9F2D0E9405
:1002000071008091020190910301B8010E94920453
:100210004AE06E2D7F2D0E94BA048E2D9F2D0E94E4
:1002200071008BE80E9453008AE30E9462008CE810
:100230000E9453008091180190911901B8010E9409
:100240009204CB014AE06D2F7C2F0E94BA048D2FBF
:100250009C2F0E9471008091180190911901B801A2
:100260000E9492044AE06D2F7C2F0E94BA048D2FC9
:100270009C2F0E947100F601EA0DFB1D80810E94F7
:10028000620090E080E0DF91CF911F910F91FF908D
:10029000EF90DF90CF90BF90AF909F908F90089598
:1002A000CF92DF92EF92FF920F931F93CF93DF9342
:1002B000C82ED92EE62EF72ED42FC52F80EC0E9403
:1002C00053008BE091E00E947100809112019091A7
:1002D00013010AE010E0B8010E949204CB014AE049
:1002E0006C2D7D2D0E94BA048C2D9D2D0E947100D5
:1002F0008091120190911301B8010E9492044AE08A
:100300006C2D7D2D0E94BA048C2D9D2D0E947100B4
:1003100088EC0E9453008AE30E94620080911401DD
:1003200090911501B8010E949204CB014AE06E2D14
:100330007F2D0E94BA048E2D9F2D0E947100809106
:10034000140190911501B8010E9492044AE06E2DAB
:100350007F2D0E94BA048E2D9F2D0E9471008BEC80
:100360000E9453008AE30E9462008CEC0E945300BA
:100370008091160190911701B8010E949204CB015F
:100380004AE06D2F7C2F0E94BA048D2F9C2F0E9473
:1003900071008091160190911701B8010E9492049A
:1003A0004AE06D2F7C2F0E94BA048D2F9C2F0E9453
:1003B0007100DF91CF911F910F91FF90EF90DF902F
:1003C000CF900895CF93DF93E82FF92FC42FD52F27
:1003D000A22FB32F80819181019719F0DF91CF91E6
:1003E00008958091120190911301892B09F5809154
:1003F000140190911501892BD9F4809116019091E7
:100400001701892BA9F41092130110921201109276
:100410001501109214011092170110921601118209
:10042000108281E090E0998388831D921C92D6CF40
:100430008091160190911701181619064CF48091BD
:10044000160190911701019790931701809316015F
:100450008091160190911701892BB1F480911401BC
:1004600090911501181619067CF480911401909151
:100470001501019790931501809314018BE390E08F
:1004800090931701809316018091140190911501AA
:10049000892B09F0A3CF80911201909113011816B6
:1004A00019060CF09BCF80911201909113010197D6
:1004B00090931301809312018BE390E090931501C8
:1004C000809314018BCFE82FF92FA62FB72F8081AF
:1004D0009181833091052CF4019691838083409A19
:1004E00008951D921C920895CDB7DEB768970FB698
:1004F000F894DEBF0FBECDBF84E494E598878F8368
:100500001A8619861C861B861E861D86188A1F86DB
:100510000E948100188E1F8A312C212CD12CC12CD5
:10052000F12CE12C712C612C912C812CB12CA12C63
:10053000512C412CD4C1FFEFEF1AFF0A26E0E2163E
:10054000F10414F0F12CE12CC984DA84C114D10433
:1005500009F016C1339946C03FEF631A730A912C14
:10056000812C86E068167104CCF080910201909194
:100570000301CC974CF48091020190910301019604
:100580009093030180930201EFEDFEE23197F1F7C2
:1005900000C00000712C612C912C812C329930C04C
:1005A0003FEFA31AB30A86E0A816B1040CF48AC080
:1005B000809100019091010148974CF480910001D5
:1005C0009091010101969093010180930001EFED5C
:1005D000FEE23197F1F700C00000B12CA12C512CA4
:1005E000412C2BC1FFEF8F1A9F0A712C612C26E042
:1005F000821691049CF2712C612C912C812CCECF0F
:10060000FFEF4F1A5F0AB12CA12C26E042165104CD
:100610000CF413C1B12CA12C512C412C0EC1FFEFB5
:100620008F1A9F0A712C612C26E0821691040CF41B
:10063000CBC0712C612C912C812CC6C0FFEF4F1ABE
:100640005F0AB12CA12C26E0421651040CF4E0C044
:10065000B12CA12C512C412CDBC08F89988D019697
:10066000988F8F8B06978CF18B859C85019799F0DD
:10067000188A1F86E1E0F0E0FC87EB878FED9EE2B1
:100680000197F1F700C00000D12CC12C188E1F8AF1
:10069000312C212CD2C01092130110921201109211
:1006A00015011092140110921701109216011C8668
:1006B0001B861A861986D12CC12C188E1F8A312CC4
:1006C000212CBBC0512C412CB8C0D12CC12C312CB9
:1006D000212CB3C0D12CC12C188E1F8AAEC0AE0104
:1006E0004B5E5F4FBE016D5E7F4FCE0141960E9413
:1006F00050019E01215F3F4FAE01435F5F4FBE013E
:10070000675F7F4FCE010B960E94E201AAC0BE0137
:10071000635F7F4FCE010F960E946302A7C0809156
:10072000020190910301CC974CF4809102019091C9
:100730000301019690930301809302011092190125
:1007400010921801A9C08091000190910101489771
:100750004CF4809100019091010101969093010168
:100760008093000110920301109202019CC09FEF40
:10077000E91AF90AE6E0EE16F10414F0F12CE12C86
:1007800033994DCF3FEF631A730A912C812C86E089
:1007900068167104CCF08091020190910301CC970E
:1007A0004CF48091140190911501019690931501DC
:1007B00080931401EFEDFEE23197F1F700C00000E5
:1007C000712C612C912C812C329938CF3FEFA31AD8
:1007D000B30A512C412C86E0A816B104CCF08091CC
:1007E00012019091130148974CF48091120190915D
:1007F000130101969093130180931201EFEDFEE235
:100800003197F1F700C00000B12CA12C512C412CE4
:10081000319905C089859A85019709F41ECF9FEF0C
:10082000291A390AE6E02E1631040CF453CFD12CE4
:10083000C12C188E1F8A312C212C09851A859E0106
:10084000295F3F4FAE014B5F5F4FBE016D5F7F4F32
:10085000CE0101960E94AA0089859A85019709F424
:100860003ECF8D859E85892B09F051CF809118014F
:1008700090911901CC974CF4809118019091190135
:10088000019690931901809318018091180190911D
:100890001901CC9709F443CF809102019091030193
:1008A000CC9709F450CF80910001909101014897B5
:1008B00021F41092010110920001FFEF22E537E0D0
:1008C000F15020403040E1F700C0000080E80E9475
:1008D00053008FE19EE40197F1F700C000003199C9
:1008E0002ACE89859A85009709F041CF2FEFC21A49
:1008F000D20A7C0136E0C316D1040CF42BCE209131
:100900000201309103012C33310524F4E1E0F0E0E1
:10091000FA87E987EFEDFEE23197F1F700C00000BA
:100920007C0112CE97FB072E16F4009407D077FDBA
:1009300009D00E94A60407FC05D03EF4909581954D
:100940009F4F0895709561957F4F0895AA1BBB1B1B
:1009500051E107C0AA1FBB1FA617B70710F0A61BBF
:10096000B70B881F991F5A95A9F780959095BC01E0
:10097000CD010895BB274A3031F4992322F4BDE21A
:10098000909581959F4F0C94C604BB27FB0155277A
:10099000AA27880F991FAA1FA41710F0A41B8395DC
:1009A0005051B9F7A05DAA3308F0A95DA193009753
:1009B00079F7B111B1931192CB010C94DF04DC01F2
:1009C000FC01672F71917723E1F7329704C07C9186
:1009D0006D9370836291AE17BF07C8F30895F894C2
:0209E000FFCF47
:1009E2000300220054696D653A200054696D6572F6
:0209F2003A00C9
:00000001FF
